{
  "contractName": "DieselPrice",
  "abi": [
    {
      "constant": true,
      "inputs": [],
      "name": "dieselPriceUSD",
      "outputs": [
        {
          "name": "",
          "type": "uint256"
        }
      ],
      "payable": false,
      "stateMutability": "view",
      "type": "function"
    },
    {
      "inputs": [],
      "payable": false,
      "stateMutability": "nonpayable",
      "type": "constructor"
    },
    {
      "anonymous": false,
      "inputs": [
        {
          "indexed": false,
          "name": "price",
          "type": "string"
        }
      ],
      "name": "LogNewDieselPrice",
      "type": "event"
    },
    {
      "anonymous": false,
      "inputs": [
        {
          "indexed": false,
          "name": "description",
          "type": "string"
        }
      ],
      "name": "LogNewOraclizeQuery",
      "type": "event"
    },
    {
      "constant": false,
      "inputs": [
        {
          "name": "myid",
          "type": "bytes32"
        },
        {
          "name": "result",
          "type": "string"
        }
      ],
      "name": "__callback",
      "outputs": [],
      "payable": false,
      "stateMutability": "nonpayable",
      "type": "function"
    },
    {
      "constant": false,
      "inputs": [
        {
          "name": "_myid",
          "type": "bytes32"
        },
        {
          "name": "_result",
          "type": "string"
        },
        {
          "name": "_proof",
          "type": "bytes"
        }
      ],
      "name": "__callback",
      "outputs": [],
      "payable": false,
      "stateMutability": "nonpayable",
      "type": "function"
    },
    {
      "constant": false,
      "inputs": [],
      "name": "update",
      "outputs": [],
      "payable": true,
      "stateMutability": "payable",
      "type": "function"
    }
  ],
  "bytecode": "0x60806040523480156200001157600080fd5b506200002b62000031640100000000026401000000009004565b62000dba565b7f621c2856e3b87f81235f8ac8a22bbb40a0142961960710d00b2b6c380902b57e6040518080602001828103825260368152602001807f4f7261636c697a65207175657279207761732073656e742c207374616e64696e81526020017f6720627920666f722074686520616e737765722e2e2e0000000000000000000081525060400191505060405180910390a16200016b6040805190810160405280600381526020017f55524c0000000000000000000000000000000000000000000000000000000000815250606060405190810160405280603481526020017f6a736f6e2868747470733a2f2f6170692e6769746875622e636f6d2f7573657281526020017f732f6176656c696e6f292e666f6c6c6f776572730000000000000000000000008152506200016e640100000000026401000000009004565b50565b60008073ffffffffffffffffffffffffffffffffffffffff16600160009054906101000a900473ffffffffffffffffffffffffffffffffffffffff1673ffffffffffffffffffffffffffffffffffffffff161480620002085750600062000206600160009054906101000a900473ffffffffffffffffffffffffffffffffffffffff1662000763640100000000026401000000009004565b145b156200022b576200022960006200076e640100000000026401000000009004565b505b600160009054906101000a900473ffffffffffffffffffffffffffffffffffffffff1673ffffffffffffffffffffffffffffffffffffffff166338cc48316040518163ffffffff167c0100000000000000000000000000000000000000000000000000000000028152600401602060405180830381600087803b158015620002b257600080fd5b505af1158015620002c7573d6000803e3d6000fd5b505050506040513d6020811015620002de57600080fd5b810190808051906020019092919050505073ffffffffffffffffffffffffffffffffffffffff166000809054906101000a900473ffffffffffffffffffffffffffffffffffffffff1673ffffffffffffffffffffffffffffffffffffffff161415156200044957600160009054906101000a900473ffffffffffffffffffffffffffffffffffffffff1673ffffffffffffffffffffffffffffffffffffffff166338cc48316040518163ffffffff167c0100000000000000000000000000000000000000000000000000000000028152600401602060405180830381600087803b158015620003cc57600080fd5b505af1158015620003e1573d6000803e3d6000fd5b505050506040513d6020811015620003f857600080fd5b81019080805190602001909291905050506000806101000a81548173ffffffffffffffffffffffffffffffffffffffff021916908373ffffffffffffffffffffffffffffffffffffffff1602179055505b60008060009054906101000a900473ffffffffffffffffffffffffffffffffffffffff1673ffffffffffffffffffffffffffffffffffffffff1663524f3889856040518263ffffffff167c01000000000000000000000000000000000000000000000000000000000281526004018080602001828103825283818151815260200191508051906020019080838360005b83811015620004f6578082015181840152602081019050620004d9565b50505050905090810190601f168015620005245780820380516001836020036101000a031916815260200191505b5092505050602060405180830381600087803b1580156200054457600080fd5b505af115801562000559573d6000803e3d6000fd5b505050506040513d60208110156200057057600080fd5b8101908080519060200190929190505050905062030d403a02670de0b6b3a764000001811115620005a95760006001029150506200075d565b6000809054906101000a900473ffffffffffffffffffffffffffffffffffffffff1673ffffffffffffffffffffffffffffffffffffffff1663adf59f9982600087876040518563ffffffff167c0100000000000000000000000000000000000000000000000000000000028152600401808481526020018060200180602001838103835285818151815260200191508051906020019080838360005b838110156200066257808201518184015260208101905062000645565b50505050905090810190601f168015620006905780820380516001836020036101000a031916815260200191505b50838103825284818151815260200191508051906020019080838360005b83811015620006cb578082015181840152602081019050620006ae565b50505050905090810190601f168015620006f95780820380516001836020036101000a031916815260200191505b50955050505050506020604051808303818588803b1580156200071b57600080fd5b505af115801562000730573d6000803e3d6000fd5b50505050506040513d60208110156200074857600080fd5b81019080805190602001909291905050509150505b92915050565b6000813b9050919050565b60006200078962000790640100000000026401000000009004565b9050919050565b600080620007c1731d3b2638a7cc9f2cb3d298a3da7a90b67e5506ed62000763640100000000026401000000009004565b11156200087657731d3b2638a7cc9f2cb3d298a3da7a90b67e5506ed600160006101000a81548173ffffffffffffffffffffffffffffffffffffffff021916908373ffffffffffffffffffffffffffffffffffffffff1602179055506200086c6040805190810160405280600b81526020017f6574685f6d61696e6e657400000000000000000000000000000000000000000081525062000cef640100000000026401000000009004565b6001905062000cec565b6000620008a673c03a2615d5efaf5f49f60b7bb6583eaec212fdf162000763640100000000026401000000009004565b11156200095b5773c03a2615d5efaf5f49f60b7bb6583eaec212fdf1600160006101000a81548173ffffffffffffffffffffffffffffffffffffffff021916908373ffffffffffffffffffffffffffffffffffffffff160217905550620009516040805190810160405280600c81526020017f6574685f726f707374656e33000000000000000000000000000000000000000081525062000cef640100000000026401000000009004565b6001905062000cec565b60006200098b73b7a07bcf2ba2f2703b24c0691b5278999c59ac7e62000763640100000000026401000000009004565b111562000a405773b7a07bcf2ba2f2703b24c0691b5278999c59ac7e600160006101000a81548173ffffffffffffffffffffffffffffffffffffffff021916908373ffffffffffffffffffffffffffffffffffffffff16021790555062000a366040805190810160405280600981526020017f6574685f6b6f76616e000000000000000000000000000000000000000000000081525062000cef640100000000026401000000009004565b6001905062000cec565b600062000a7073146500cfd35b22e4a392fe0adc06de1a1368ed4862000763640100000000026401000000009004565b111562000b255773146500cfd35b22e4a392fe0adc06de1a1368ed48600160006101000a81548173ffffffffffffffffffffffffffffffffffffffff021916908373ffffffffffffffffffffffffffffffffffffffff16021790555062000b1b6040805190810160405280600b81526020017f6574685f72696e6b65627900000000000000000000000000000000000000000081525062000cef640100000000026401000000009004565b6001905062000cec565b600062000b55736f485c8bf6fc43ea212e93bbf8ce046c7f1cb47562000763640100000000026401000000009004565b111562000bbb57736f485c8bf6fc43ea212e93bbf8ce046c7f1cb475600160006101000a81548173ffffffffffffffffffffffffffffffffffffffff021916908373ffffffffffffffffffffffffffffffffffffffff1602179055506001905062000cec565b600062000beb7320e12a1f859b3feae5fb2a0a32c18f5a65555bbf62000763640100000000026401000000009004565b111562000c51577320e12a1f859b3feae5fb2a0a32c18f5a65555bbf600160006101000a81548173ffffffffffffffffffffffffffffffffffffffff021916908373ffffffffffffffffffffffffffffffffffffffff1602179055506001905062000cec565b600062000c817351efaf4c8b3c9afbd5ab9f4bbc82784ab6ef8faa62000763640100000000026401000000009004565b111562000ce7577351efaf4c8b3c9afbd5ab9f4bbc82784ab6ef8faa600160006101000a81548173ffffffffffffffffffffffffffffffffffffffff021916908373ffffffffffffffffffffffffffffffffffffffff1602179055506001905062000cec565b600090505b90565b806002908051906020019062000d0792919062000d0b565b5050565b828054600181600116156101000203166002900490600052602060002090601f016020900481019282601f1062000d4e57805160ff191683800117855562000d7f565b8280016001018555821562000d7f579182015b8281111562000d7e57825182559160200191906001019062000d61565b5b50905062000d8e919062000d92565b5090565b62000db791905b8082111562000db357600081600090555060010162000d99565b5090565b90565b61165e8062000dca6000396000f3fe60806040526004361061005c576000357c01000000000000000000000000000000000000000000000000000000009004806327dc297e1461006157806338bbfa50146101335780633e0ae5881461029c578063a2e62045146102c7575b600080fd5b34801561006d57600080fd5b506101316004803603604081101561008457600080fd5b8101908080359060200190929190803590602001906401000000008111156100ab57600080fd5b8201836020820111156100bd57600080fd5b803590602001918460018302840111640100000000831117156100df57600080fd5b91908080601f016020809104026020016040519081016040528093929190818152602001838380828437600081840152601f19601f8201169050808301925050505050505091929192905050506102d1565b005b34801561013f57600080fd5b5061029a6004803603606081101561015657600080fd5b81019080803590602001909291908035906020019064010000000081111561017d57600080fd5b82018360208201111561018f57600080fd5b803590602001918460018302840111640100000000831117156101b157600080fd5b91908080601f016020809104026020016040519081016040528093929190818152602001838380828437600081840152601f19601f8201169050808301925050505050505091929192908035906020019064010000000081111561021457600080fd5b82018360208201111561022657600080fd5b8035906020019184600183028401116401000000008311171561024857600080fd5b91908080601f016020809104026020016040519081016040528093929190818152602001838380828437600081840152601f19601f8201169050808301925050505050505091929192905050506103c3565b005b3480156102a857600080fd5b506102b16103c8565b6040518082815260200191505060405180910390f35b6102cf6103ce565b005b6102d96104fa565b73ffffffffffffffffffffffffffffffffffffffff163373ffffffffffffffffffffffffffffffffffffffff1614151561031257600080fd5b7fd6895258709992fce160291769b3d3b2abe843f1e1529bed11f0dbd1f8159bb0816040518080602001828103825283818151815260200191508051906020019080838360005b83811015610374578082015181840152602081019050610359565b50505050905090810190601f1680156103a15780820380516001836020036101000a031916815260200191505b509250505060405180910390a16103b981600261086d565b6005819055505050565b505050565b60055481565b7f621c2856e3b87f81235f8ac8a22bbb40a0142961960710d00b2b6c380902b57e6040518080602001828103825260368152602001807f4f7261636c697a65207175657279207761732073656e742c207374616e64696e81526020017f6720627920666f722074686520616e737765722e2e2e0000000000000000000081525060400191505060405180910390a16104f76040805190810160405280600381526020017f55524c0000000000000000000000000000000000000000000000000000000000815250606060405190810160405280603481526020017f6a736f6e2868747470733a2f2f6170692e6769746875622e636f6d2f7573657281526020017f732f6176656c696e6f292e666f6c6c6f77657273000000000000000000000000815250610b08565b50565b60008073ffffffffffffffffffffffffffffffffffffffff16600160009054906101000a900473ffffffffffffffffffffffffffffffffffffffff1673ffffffffffffffffffffffffffffffffffffffff16148061058257506000610580600160009054906101000a900473ffffffffffffffffffffffffffffffffffffffff166110c1565b145b156105935761059160006110cc565b505b600160009054906101000a900473ffffffffffffffffffffffffffffffffffffffff1673ffffffffffffffffffffffffffffffffffffffff166338cc48316040518163ffffffff167c0100000000000000000000000000000000000000000000000000000000028152600401602060405180830381600087803b15801561061957600080fd5b505af115801561062d573d6000803e3d6000fd5b505050506040513d602081101561064357600080fd5b810190808051906020019092919050505073ffffffffffffffffffffffffffffffffffffffff166000809054906101000a900473ffffffffffffffffffffffffffffffffffffffff1673ffffffffffffffffffffffffffffffffffffffff161415156107aa57600160009054906101000a900473ffffffffffffffffffffffffffffffffffffffff1673ffffffffffffffffffffffffffffffffffffffff166338cc48316040518163ffffffff167c0100000000000000000000000000000000000000000000000000000000028152600401602060405180830381600087803b15801561072f57600080fd5b505af1158015610743573d6000803e3d6000fd5b505050506040513d602081101561075957600080fd5b81019080805190602001909291905050506000806101000a81548173ffffffffffffffffffffffffffffffffffffffff021916908373ffffffffffffffffffffffffffffffffffffffff1602179055505b6000809054906101000a900473ffffffffffffffffffffffffffffffffffffffff1673ffffffffffffffffffffffffffffffffffffffff1663c281d19e6040518163ffffffff167c010000000000000000000000000000000000000000000000000000000002815260040160206040518083038186803b15801561082d57600080fd5b505afa158015610841573d6000803e3d6000fd5b505050506040513d602081101561085757600080fd5b8101908080519060200190929190505050905090565b600060608390506000809050600080905060008090505b8351811015610ae9576030848281518110151561089d57fe5b9060200101517f010000000000000000000000000000000000000000000000000000000000000090047f0100000000000000000000000000000000000000000000000000000000000000027f0100000000000000000000000000000000000000000000000000000000000000900460ff161015801561099b57506039848281518110151561092757fe5b9060200101517f010000000000000000000000000000000000000000000000000000000000000090047f0100000000000000000000000000000000000000000000000000000000000000027f0100000000000000000000000000000000000000000000000000000000000000900460ff1611155b15610a4f5781156109be5760008614156109b457610ae9565b8580600190039650505b600a83029250603084828151811015156109d457fe5b9060200101517f010000000000000000000000000000000000000000000000000000000000000090047f0100000000000000000000000000000000000000000000000000000000000000027f0100000000000000000000000000000000000000000000000000000000000000900460ff160383019250610adc565b602e8482815181101515610a5f57fe5b9060200101517f010000000000000000000000000000000000000000000000000000000000000090047f0100000000000000000000000000000000000000000000000000000000000000027f0100000000000000000000000000000000000000000000000000000000000000900460ff161415610adb57600191505b5b8080600101915050610884565b506000851115610afc5784600a0a820291505b81935050505092915050565b60008073ffffffffffffffffffffffffffffffffffffffff16600160009054906101000a900473ffffffffffffffffffffffffffffffffffffffff1673ffffffffffffffffffffffffffffffffffffffff161480610b9057506000610b8e600160009054906101000a900473ffffffffffffffffffffffffffffffffffffffff166110c1565b145b15610ba157610b9f60006110cc565b505b600160009054906101000a900473ffffffffffffffffffffffffffffffffffffffff1673ffffffffffffffffffffffffffffffffffffffff166338cc48316040518163ffffffff167c0100000000000000000000000000000000000000000000000000000000028152600401602060405180830381600087803b158015610c2757600080fd5b505af1158015610c3b573d6000803e3d6000fd5b505050506040513d6020811015610c5157600080fd5b810190808051906020019092919050505073ffffffffffffffffffffffffffffffffffffffff166000809054906101000a900473ffffffffffffffffffffffffffffffffffffffff1673ffffffffffffffffffffffffffffffffffffffff16141515610db857600160009054906101000a900473ffffffffffffffffffffffffffffffffffffffff1673ffffffffffffffffffffffffffffffffffffffff166338cc48316040518163ffffffff167c0100000000000000000000000000000000000000000000000000000000028152600401602060405180830381600087803b158015610d3d57600080fd5b505af1158015610d51573d6000803e3d6000fd5b505050506040513d6020811015610d6757600080fd5b81019080805190602001909291905050506000806101000a81548173ffffffffffffffffffffffffffffffffffffffff021916908373ffffffffffffffffffffffffffffffffffffffff1602179055505b60008060009054906101000a900473ffffffffffffffffffffffffffffffffffffffff1673ffffffffffffffffffffffffffffffffffffffff1663524f3889856040518263ffffffff167c01000000000000000000000000000000000000000000000000000000000281526004018080602001828103825283818151815260200191508051906020019080838360005b83811015610e63578082015181840152602081019050610e48565b50505050905090810190601f168015610e905780820380516001836020036101000a031916815260200191505b5092505050602060405180830381600087803b158015610eaf57600080fd5b505af1158015610ec3573d6000803e3d6000fd5b505050506040513d6020811015610ed957600080fd5b8101908080519060200190929190505050905062030d403a02670de0b6b3a764000001811115610f105760006001029150506110bb565b6000809054906101000a900473ffffffffffffffffffffffffffffffffffffffff1673ffffffffffffffffffffffffffffffffffffffff1663adf59f9982600087876040518563ffffffff167c0100000000000000000000000000000000000000000000000000000000028152600401808481526020018060200180602001838103835285818151815260200191508051906020019080838360005b83811015610fc7578082015181840152602081019050610fac565b50505050905090810190601f168015610ff45780820380516001836020036101000a031916815260200191505b50838103825284818151815260200191508051906020019080838360005b8381101561102d578082015181840152602081019050611012565b50505050905090810190601f16801561105a5780820380516001836020036101000a031916815260200191505b50955050505050506020604051808303818588803b15801561107b57600080fd5b505af115801561108f573d6000803e3d6000fd5b50505050506040513d60208110156110a657600080fd5b81019080805190602001909291905050509150505b92915050565b6000813b9050919050565b60006110d66110dd565b9050919050565b6000806110fd731d3b2638a7cc9f2cb3d298a3da7a90b67e5506ed6110c1565b111561119f57731d3b2638a7cc9f2cb3d298a3da7a90b67e5506ed600160006101000a81548173ffffffffffffffffffffffffffffffffffffffff021916908373ffffffffffffffffffffffffffffffffffffffff1602179055506111966040805190810160405280600b81526020017f6574685f6d61696e6e6574000000000000000000000000000000000000000000815250611573565b60019050611570565b60006111be73c03a2615d5efaf5f49f60b7bb6583eaec212fdf16110c1565b11156112605773c03a2615d5efaf5f49f60b7bb6583eaec212fdf1600160006101000a81548173ffffffffffffffffffffffffffffffffffffffff021916908373ffffffffffffffffffffffffffffffffffffffff1602179055506112576040805190810160405280600c81526020017f6574685f726f707374656e330000000000000000000000000000000000000000815250611573565b60019050611570565b600061127f73b7a07bcf2ba2f2703b24c0691b5278999c59ac7e6110c1565b11156113215773b7a07bcf2ba2f2703b24c0691b5278999c59ac7e600160006101000a81548173ffffffffffffffffffffffffffffffffffffffff021916908373ffffffffffffffffffffffffffffffffffffffff1602179055506113186040805190810160405280600981526020017f6574685f6b6f76616e0000000000000000000000000000000000000000000000815250611573565b60019050611570565b600061134073146500cfd35b22e4a392fe0adc06de1a1368ed486110c1565b11156113e25773146500cfd35b22e4a392fe0adc06de1a1368ed48600160006101000a81548173ffffffffffffffffffffffffffffffffffffffff021916908373ffffffffffffffffffffffffffffffffffffffff1602179055506113d96040805190810160405280600b81526020017f6574685f72696e6b656279000000000000000000000000000000000000000000815250611573565b60019050611570565b6000611401736f485c8bf6fc43ea212e93bbf8ce046c7f1cb4756110c1565b111561146557736f485c8bf6fc43ea212e93bbf8ce046c7f1cb475600160006101000a81548173ffffffffffffffffffffffffffffffffffffffff021916908373ffffffffffffffffffffffffffffffffffffffff16021790555060019050611570565b60006114847320e12a1f859b3feae5fb2a0a32c18f5a65555bbf6110c1565b11156114e8577320e12a1f859b3feae5fb2a0a32c18f5a65555bbf600160006101000a81548173ffffffffffffffffffffffffffffffffffffffff021916908373ffffffffffffffffffffffffffffffffffffffff16021790555060019050611570565b60006115077351efaf4c8b3c9afbd5ab9f4bbc82784ab6ef8faa6110c1565b111561156b577351efaf4c8b3c9afbd5ab9f4bbc82784ab6ef8faa600160006101000a81548173ffffffffffffffffffffffffffffffffffffffff021916908373ffffffffffffffffffffffffffffffffffffffff16021790555060019050611570565b600090505b90565b806002908051906020019061158992919061158d565b5050565b828054600181600116156101000203166002900490600052602060002090601f016020900481019282601f106115ce57805160ff19168380011785556115fc565b828001600101855582156115fc579182015b828111156115fb5782518255916020019190600101906115e0565b5b509050611609919061160d565b5090565b61162f91905b8082111561162b576000816000905550600101611613565b5090565b9056fea165627a7a7230582014ef3d55cb5fa92910d157fdabd4df9a3cb856fcd7587ca4ca3a17bfb4b3e5f90029",
  "source": "pragma solidity ^0.5.0;\n\n\nimport \"./OraclizeAPI.sol\";\n\ncontract DieselPrice is usingOraclize {\n\n\n      uint public dieselPriceUSD;\n\n      event LogNewDieselPrice(string price);\n      event LogNewOraclizeQuery(string description);\n\n      constructor() public {\n          update(); // First check at contract creation...\n      }\n\n      function __callback(bytes32 myid, string memory result) public {\n          require(msg.sender == oraclize_cbAddress());\n          emit LogNewDieselPrice(result);\n          dieselPriceUSD = parseInt(result, 2); // Let's save it as cents...\n          // Now do something with the USD Diesel price...\n      }\n\n      function update() public payable {\n          emit LogNewOraclizeQuery(\"Oraclize query was sent, standing by for the answer...\");\n          oraclize_query(\"URL\", \"json(https://api.github.com/users/avelino).followers\");\n      }\n  }\n",
  "sourcePath": "/Users/filipsundgren/Desktop/Tester/truffle_react/contracts/DieselPrice.sol",
  "compiler": {
    "name": "solc",
    "version": "0.5.1+commit.c8a2cb62.Emscripten.clang"
  },
  "schemaVersion": "3.0.0-beta.1",
  "updatedAt": "2019-01-24T22:06:20.215Z",
  "devdoc": {
    "methods": {}
  },
  "userdoc": {
    "methods": {}
  }
}