{
  "contractName": "PlatformzNew",
  "abi": [
    {
      "constant": true,
      "inputs": [
        {
          "name": "",
          "type": "uint256"
        }
      ],
      "name": "admins",
      "outputs": [
        {
          "name": "",
          "type": "address"
        }
      ],
      "payable": false,
      "stateMutability": "view",
      "type": "function"
    },
    {
      "constant": true,
      "inputs": [],
      "name": "timeStep",
      "outputs": [
        {
          "name": "",
          "type": "uint256"
        }
      ],
      "payable": false,
      "stateMutability": "view",
      "type": "function"
    },
    {
      "constant": true,
      "inputs": [
        {
          "name": "",
          "type": "address"
        }
      ],
      "name": "isAdmin",
      "outputs": [
        {
          "name": "",
          "type": "bool"
        }
      ],
      "payable": false,
      "stateMutability": "view",
      "type": "function"
    },
    {
      "constant": true,
      "inputs": [],
      "name": "additionalWeeks",
      "outputs": [
        {
          "name": "",
          "type": "uint256"
        }
      ],
      "payable": false,
      "stateMutability": "view",
      "type": "function"
    },
    {
      "constant": true,
      "inputs": [],
      "name": "stepCount",
      "outputs": [
        {
          "name": "",
          "type": "uint256"
        }
      ],
      "payable": false,
      "stateMutability": "view",
      "type": "function"
    },
    {
      "constant": true,
      "inputs": [],
      "name": "depositAmount",
      "outputs": [
        {
          "name": "",
          "type": "uint256"
        }
      ],
      "payable": false,
      "stateMutability": "view",
      "type": "function"
    },
    {
      "constant": true,
      "inputs": [],
      "name": "hasStarted",
      "outputs": [
        {
          "name": "",
          "type": "bool"
        }
      ],
      "payable": false,
      "stateMutability": "view",
      "type": "function"
    },
    {
      "constant": true,
      "inputs": [],
      "name": "weightGuard",
      "outputs": [
        {
          "name": "",
          "type": "uint256"
        }
      ],
      "payable": false,
      "stateMutability": "view",
      "type": "function"
    },
    {
      "constant": true,
      "inputs": [
        {
          "name": "",
          "type": "uint256"
        }
      ],
      "name": "weightNumberChecker",
      "outputs": [
        {
          "name": "",
          "type": "uint256"
        }
      ],
      "payable": false,
      "stateMutability": "view",
      "type": "function"
    },
    {
      "constant": true,
      "inputs": [
        {
          "name": "",
          "type": "address"
        }
      ],
      "name": "developers",
      "outputs": [
        {
          "name": "developerAddress",
          "type": "address"
        },
        {
          "name": "weight",
          "type": "uint256"
        },
        {
          "name": "acceptedSteps",
          "type": "uint8"
        },
        {
          "name": "isDeveloper",
          "type": "bool"
        },
        {
          "name": "withdrawalCounter",
          "type": "uint256"
        }
      ],
      "payable": false,
      "stateMutability": "view",
      "type": "function"
    },
    {
      "constant": true,
      "inputs": [],
      "name": "owner",
      "outputs": [
        {
          "name": "",
          "type": "address"
        }
      ],
      "payable": false,
      "stateMutability": "view",
      "type": "function"
    },
    {
      "constant": true,
      "inputs": [],
      "name": "acceptedSteps",
      "outputs": [
        {
          "name": "",
          "type": "uint8"
        }
      ],
      "payable": false,
      "stateMutability": "view",
      "type": "function"
    },
    {
      "constant": true,
      "inputs": [
        {
          "name": "",
          "type": "uint256"
        }
      ],
      "name": "developersList",
      "outputs": [
        {
          "name": "",
          "type": "address"
        }
      ],
      "payable": false,
      "stateMutability": "view",
      "type": "function"
    },
    {
      "constant": true,
      "inputs": [],
      "name": "contractEndTime",
      "outputs": [
        {
          "name": "",
          "type": "uint256"
        }
      ],
      "payable": false,
      "stateMutability": "view",
      "type": "function"
    },
    {
      "constant": true,
      "inputs": [],
      "name": "contractActive",
      "outputs": [
        {
          "name": "",
          "type": "bool"
        }
      ],
      "payable": false,
      "stateMutability": "view",
      "type": "function"
    },
    {
      "inputs": [],
      "payable": false,
      "stateMutability": "nonpayable",
      "type": "constructor"
    },
    {
      "payable": true,
      "stateMutability": "payable",
      "type": "fallback"
    },
    {
      "anonymous": false,
      "inputs": [
        {
          "indexed": false,
          "name": "none",
          "type": "string"
        }
      ],
      "name": "LogNoneAcceptedStep",
      "type": "event"
    },
    {
      "anonymous": false,
      "inputs": [
        {
          "indexed": false,
          "name": "first",
          "type": "string"
        }
      ],
      "name": "LogFirstAcceptedStep",
      "type": "event"
    },
    {
      "anonymous": false,
      "inputs": [
        {
          "indexed": false,
          "name": "second",
          "type": "string"
        }
      ],
      "name": "LogSecondAcceptedStep",
      "type": "event"
    },
    {
      "anonymous": false,
      "inputs": [
        {
          "indexed": false,
          "name": "devAddress",
          "type": "address"
        },
        {
          "indexed": false,
          "name": "weight",
          "type": "uint256"
        },
        {
          "indexed": false,
          "name": "acceptedSteps",
          "type": "uint256"
        },
        {
          "indexed": false,
          "name": "isDeveloper",
          "type": "bool"
        },
        {
          "indexed": false,
          "name": "withdrawals",
          "type": "uint256"
        }
      ],
      "name": "LogDeveloperStatus",
      "type": "event"
    },
    {
      "anonymous": false,
      "inputs": [
        {
          "indexed": false,
          "name": "newDeadline",
          "type": "uint256"
        }
      ],
      "name": "LogDeadlineExtended",
      "type": "event"
    },
    {
      "anonymous": false,
      "inputs": [
        {
          "indexed": false,
          "name": "unixTimeOfContract",
          "type": "uint256"
        }
      ],
      "name": "LogContractEndsAt",
      "type": "event"
    },
    {
      "anonymous": false,
      "inputs": [
        {
          "indexed": false,
          "name": "developerAddressAdded",
          "type": "address"
        },
        {
          "indexed": false,
          "name": "developerRewardWeight",
          "type": "uint256"
        }
      ],
      "name": "LogDeveloperAdded",
      "type": "event"
    },
    {
      "anonymous": false,
      "inputs": [
        {
          "indexed": false,
          "name": "adminAddress",
          "type": "address"
        }
      ],
      "name": "LogAdminAdded",
      "type": "event"
    },
    {
      "anonymous": false,
      "inputs": [
        {
          "indexed": false,
          "name": "contractPaused",
          "type": "bool"
        }
      ],
      "name": "LogPauseContract",
      "type": "event"
    },
    {
      "anonymous": false,
      "inputs": [
        {
          "indexed": false,
          "name": "contractActive",
          "type": "bool"
        }
      ],
      "name": "LogResumeContract",
      "type": "event"
    },
    {
      "anonymous": false,
      "inputs": [
        {
          "indexed": false,
          "name": "stepCount",
          "type": "uint256"
        }
      ],
      "name": "LogStepCount",
      "type": "event"
    },
    {
      "anonymous": false,
      "inputs": [
        {
          "indexed": false,
          "name": "amountWithdrawn",
          "type": "uint256"
        }
      ],
      "name": "LogWithdrawal",
      "type": "event"
    },
    {
      "anonymous": false,
      "inputs": [
        {
          "indexed": false,
          "name": "whoSent",
          "type": "address"
        }
      ],
      "name": "LogDepositReceived",
      "type": "event"
    },
    {
      "constant": false,
      "inputs": [
        {
          "name": "timeContract",
          "type": "uint256"
        }
      ],
      "name": "startWork",
      "outputs": [
        {
          "name": "success",
          "type": "bool"
        }
      ],
      "payable": true,
      "stateMutability": "payable",
      "type": "function"
    },
    {
      "constant": false,
      "inputs": [
        {
          "name": "developer",
          "type": "address"
        },
        {
          "name": "reward",
          "type": "uint256"
        }
      ],
      "name": "addDeveloper",
      "outputs": [],
      "payable": false,
      "stateMutability": "nonpayable",
      "type": "function"
    },
    {
      "constant": true,
      "inputs": [],
      "name": "numberOfDevs",
      "outputs": [
        {
          "name": "numberOfDevelopers",
          "type": "uint256"
        }
      ],
      "payable": false,
      "stateMutability": "view",
      "type": "function"
    },
    {
      "constant": false,
      "inputs": [],
      "name": "stepAccept",
      "outputs": [],
      "payable": false,
      "stateMutability": "nonpayable",
      "type": "function"
    },
    {
      "constant": false,
      "inputs": [],
      "name": "withdrawal",
      "outputs": [],
      "payable": false,
      "stateMutability": "nonpayable",
      "type": "function"
    },
    {
      "constant": false,
      "inputs": [
        {
          "name": "_admin",
          "type": "address"
        }
      ],
      "name": "addAdmin",
      "outputs": [],
      "payable": false,
      "stateMutability": "nonpayable",
      "type": "function"
    },
    {
      "constant": true,
      "inputs": [],
      "name": "checkBalance",
      "outputs": [
        {
          "name": "contractBalance",
          "type": "uint256"
        }
      ],
      "payable": false,
      "stateMutability": "view",
      "type": "function"
    },
    {
      "constant": false,
      "inputs": [
        {
          "name": "devAddress",
          "type": "address"
        },
        {
          "name": "devInList",
          "type": "uint256"
        }
      ],
      "name": "removeSingleDev",
      "outputs": [],
      "payable": false,
      "stateMutability": "nonpayable",
      "type": "function"
    },
    {
      "constant": false,
      "inputs": [
        {
          "name": "adminAddress",
          "type": "address"
        }
      ],
      "name": "removeAdmin",
      "outputs": [],
      "payable": false,
      "stateMutability": "nonpayable",
      "type": "function"
    },
    {
      "constant": false,
      "inputs": [],
      "name": "extendDeadline",
      "outputs": [],
      "payable": false,
      "stateMutability": "nonpayable",
      "type": "function"
    },
    {
      "constant": false,
      "inputs": [],
      "name": "pauseContract",
      "outputs": [],
      "payable": false,
      "stateMutability": "nonpayable",
      "type": "function"
    },
    {
      "constant": false,
      "inputs": [],
      "name": "resumeContract",
      "outputs": [],
      "payable": false,
      "stateMutability": "nonpayable",
      "type": "function"
    },
    {
      "constant": false,
      "inputs": [],
      "name": "killContract",
      "outputs": [
        {
          "name": "dead",
          "type": "bool"
        }
      ],
      "payable": false,
      "stateMutability": "nonpayable",
      "type": "function"
    }
  ],
  "bytecode": "0x608060405234801561001057600080fd5b5033600160006101000a81548173ffffffffffffffffffffffffffffffffffffffff021916908373ffffffffffffffffffffffffffffffffffffffff1602179055506001600a6000600160009054906101000a900473ffffffffffffffffffffffffffffffffffffffff1673ffffffffffffffffffffffffffffffffffffffff1673ffffffffffffffffffffffffffffffffffffffff16815260200190815260200160002060006101000a81548160ff0219169083151502179055506000600860026101000a81548160ff021916908315150217905550613f35806100f66000396000f3fe608060405260043610610164576000357c01000000000000000000000000000000000000000000000000000000009004806303a250f9146101db57806314bfd6d0146102215780631502906d1461029c5780631785f53c146102c75780631c02708d1461031857806324d7806c14610347578063268a66d8146103b05780632e823ee91461040b578063415deffa14610436578063419759f514610461578063439766ce1461048c57806344691f7e146104a35780634e979535146104d257806351e954aa146104fd57806361fd5c201461054c57806369ef5e0a1461060b57806370480275146106225780638da5cb5b146106735780638ff270c5146106ca578063ab9c9c1814610703578063b8534ed11461077e578063c4bc5da5146107a9578063c71daccb146107c0578063d1456abd146107eb578063d4e9329214610816578063d51c87c01461082d578063e289fcb614610844578063f762677214610873575b60008036905014151561017657600080fd5b7f15382559391789f1865e10e9c8b51327a9cb0381eae89973ada229e7a78c08f333604051808273ffffffffffffffffffffffffffffffffffffffff1673ffffffffffffffffffffffffffffffffffffffff16815260200191505060405180910390a1005b610207600480360360208110156101f157600080fd5b81019080803590602001909291905050506108ce565b604051808215151515815260200191505060405180910390f35b34801561022d57600080fd5b5061025a6004803603602081101561024457600080fd5b8101908080359060200190929190505050610e35565b604051808273ffffffffffffffffffffffffffffffffffffffff1673ffffffffffffffffffffffffffffffffffffffff16815260200191505060405180910390f35b3480156102a857600080fd5b506102b1610e73565b6040518082815260200191505060405180910390f35b3480156102d357600080fd5b50610316600480360360208110156102ea57600080fd5b81019080803573ffffffffffffffffffffffffffffffffffffffff169060200190929190505050610e79565b005b34801561032457600080fd5b5061032d611078565b604051808215151515815260200191505060405180910390f35b34801561035357600080fd5b506103966004803603602081101561036a57600080fd5b81019080803573ffffffffffffffffffffffffffffffffffffffff169060200190929190505050611111565b604051808215151515815260200191505060405180910390f35b3480156103bc57600080fd5b50610409600480360360408110156103d357600080fd5b81019080803573ffffffffffffffffffffffffffffffffffffffff16906020019092919080359060200190929190505050611131565b005b34801561041757600080fd5b5061042061178c565b6040518082815260200191505060405180910390f35b34801561044257600080fd5b5061044b611792565b6040518082815260200191505060405180910390f35b34801561046d57600080fd5b50610476611798565b6040518082815260200191505060405180910390f35b34801561049857600080fd5b506104a161179e565b005b3480156104af57600080fd5b506104b8611a05565b604051808215151515815260200191505060405180910390f35b3480156104de57600080fd5b506104e7611a18565b6040518082815260200191505060405180910390f35b34801561050957600080fd5b506105366004803603602081101561052057600080fd5b8101908080359060200190929190505050611a1e565b6040518082815260200191505060405180910390f35b34801561055857600080fd5b5061059b6004803603602081101561056f57600080fd5b81019080803573ffffffffffffffffffffffffffffffffffffffff169060200190929190505050611a41565b604051808673ffffffffffffffffffffffffffffffffffffffff1673ffffffffffffffffffffffffffffffffffffffff1681526020018581526020018460048111156105e357fe5b60ff168152602001831515151581526020018281526020019550505050505060405180910390f35b34801561061757600080fd5b50610620611ab1565b005b34801561062e57600080fd5b506106716004803603602081101561064557600080fd5b81019080803573ffffffffffffffffffffffffffffffffffffffff169060200190929190505050611dac565b005b34801561067f57600080fd5b50610688612155565b604051808273ffffffffffffffffffffffffffffffffffffffff1673ffffffffffffffffffffffffffffffffffffffff16815260200191505060405180910390f35b3480156106d657600080fd5b506106df61217b565b604051808260048111156106ef57fe5b60ff16815260200191505060405180910390f35b34801561070f57600080fd5b5061073c6004803603602081101561072657600080fd5b810190808035906020019092919050505061218e565b604051808273ffffffffffffffffffffffffffffffffffffffff1673ffffffffffffffffffffffffffffffffffffffff16815260200191505060405180910390f35b34801561078a57600080fd5b506107936121cc565b6040518082815260200191505060405180910390f35b3480156107b557600080fd5b506107be6121d2565b005b3480156107cc57600080fd5b506107d561241e565b6040518082815260200191505060405180910390f35b3480156107f757600080fd5b5061080061243d565b6040518082815260200191505060405180910390f35b34801561082257600080fd5b5061082b61244a565b005b34801561083957600080fd5b50610842612d3f565b005b34801561085057600080fd5b50610859613a8e565b604051808215151515815260200191505060405180910390f35b34801561087f57600080fd5b506108cc6004803603604081101561089657600080fd5b81019080803573ffffffffffffffffffffffffffffffffffffffff16906020019092919080359060200190929190505050613aa1565b005b600060011515600a60003373ffffffffffffffffffffffffffffffffffffffff1673ffffffffffffffffffffffffffffffffffffffff16815260200190815260200160002060009054906101000a900460ff161515148061097c5750600160009054906101000a900473ffffffffffffffffffffffffffffffffffffffff1673ffffffffffffffffffffffffffffffffffffffff163373ffffffffffffffffffffffffffffffffffffffff16145b1515610a16576040517f08c379a00000000000000000000000000000000000000000000000000000000081526004018080602001828103825260238152602001807f4f6e6c792061646d696e206f72206f776e65722063616e20706572666f6d207481526020017f686973000000000000000000000000000000000000000000000000000000000081525060400191505060405180910390fd5b610a1e613e6a565b60001515600860019054906101000a900460ff161515141515610a4057600080fd5b6000600b80549050111515610ae3576040517f08c379a00000000000000000000000000000000000000000000000000000000081526004018080602001828103825260338152602001807f596f75206d75737420616464206174206c65617374206f6e6520646576656c6f81526020017f706572206265666f7265207374617274696e670000000000000000000000000081525060400191505060405180910390fd5b60018210158015610af5575060088211155b1515610b8f576040517f08c379a00000000000000000000000000000000000000000000000000000000081526004018080602001828103825260248152602001807f38207765656b7320697320746865206d6178696d756d20636f6e74726163742081526020017f74696d650000000000000000000000000000000000000000000000000000000081525060400191505060405180910390fd5b6000600234811515610b9d57fe5b06141515610c13576040517f08c379a00000000000000000000000000000000000000000000000000000000081526004018080602001828103825260148152602001807f4576656e2076616c75652072657175697265642e00000000000000000000000081525060200191505060405180910390fd5b60003414151515610c8c576040517f08c379a000000000000000000000000000000000000000000000000000000000815260040180806020018281038252600f8152602001807f4d7573742073656e64206d6f6e6579000000000000000000000000000000000081525060200191505060405180910390fd5b6064600454141515610d06576040517f08c379a00000000000000000000000000000000000000000000000000000000081526004018080602001828103825260138152602001807f776569676874206d75737420626520313030250000000000000000000000000081525060200191505060405180910390fd5b3460038190555060001515600660009054906101000a900460ff161515141515610d98576040517f08c379a00000000000000000000000000000000000000000000000000000000081526004018080602001828103825260188152602001807f636f6e747261637420616c72656164792073746172746564000000000000000081525060200191505060405180910390fd5b6001600660006101000a81548160ff0219169083151502179055504262093a808302016002819055506004600254811515610dcf57fe5b0442016007819055507f31c42a5554cce3aa0df8f857eb3aa46cf90cc61549e32f4630c6632da37e07ca6002546040518082815260200191505060405180910390a16001600860016101000a81548160ff02191690831515021790555060019050919050565b600d81815481101515610e4457fe5b906000526020600020016000915054906101000a900473ffffffffffffffffffffffffffffffffffffffff1681565b60075481565b60011515600a60008373ffffffffffffffffffffffffffffffffffffffff1673ffffffffffffffffffffffffffffffffffffffff16815260200190815260200160002060009054906101000a900460ff161515141515610f41576040517f08c379a000000000000000000000000000000000000000000000000000000000815260040180806020018281038252600d8152602001807f4d7573742062652061646d696e0000000000000000000000000000000000000081525060200191505060405180910390fd5b600160009054906101000a900473ffffffffffffffffffffffffffffffffffffffff1673ffffffffffffffffffffffffffffffffffffffff168173ffffffffffffffffffffffffffffffffffffffff1614151515611007576040517f08c379a00000000000000000000000000000000000000000000000000000000081526004018080602001828103825260138152602001807f63616e6e6f7420626520746865206f776e65720000000000000000000000000081525060200191505060405180910390fd5b6000600a60008373ffffffffffffffffffffffffffffffffffffffff1673ffffffffffffffffffffffffffffffffffffffff16815260200190815260200160002060006101000a81548160ff021916908315150217905550600d8054809190600190036110749190613eb8565b5050565b6000600160009054906101000a900473ffffffffffffffffffffffffffffffffffffffff1673ffffffffffffffffffffffffffffffffffffffff163373ffffffffffffffffffffffffffffffffffffffff161415156110d657600080fd5b600160009054906101000a900473ffffffffffffffffffffffffffffffffffffffff1673ffffffffffffffffffffffffffffffffffffffff16ff5b600a6020528060005260406000206000915054906101000a900460ff1681565b60011515600a60003373ffffffffffffffffffffffffffffffffffffffff1673ffffffffffffffffffffffffffffffffffffffff16815260200190815260200160002060009054906101000a900460ff16151514806111dd5750600160009054906101000a900473ffffffffffffffffffffffffffffffffffffffff1673ffffffffffffffffffffffffffffffffffffffff163373ffffffffffffffffffffffffffffffffffffffff16145b1515611277576040517f08c379a00000000000000000000000000000000000000000000000000000000081526004018080602001828103825260238152602001807f4f6e6c792061646d696e206f72206f776e65722063616e20706572666f6d207481526020017f686973000000000000000000000000000000000000000000000000000000000081525060400191505060405180910390fd5b60001515600660009054906101000a900460ff161515141515611328576040517f08c379a000000000000000000000000000000000000000000000000000000000815260040180806020018281038252602b8152602001807f436f6e74726163742063616e6e6f742062652061637469766520666f7220746881526020017f69732066756e6374696f6e00000000000000000000000000000000000000000081525060400191505060405180910390fd5b60001515600960008473ffffffffffffffffffffffffffffffffffffffff1673ffffffffffffffffffffffffffffffffffffffff16815260200190815260200160002060020160019054906101000a900460ff1615151415156113f3576040517f08c379a00000000000000000000000000000000000000000000000000000000081526004018080602001828103825260148152602001807f497320616c726561647920646576656c6f70657200000000000000000000000081525060200191505060405180910390fd5b60008111151561146b576040517f08c379a000000000000000000000000000000000000000000000000000000000815260040180806020018281038252601d8152602001807f726577617264206d7573742062652067726561746572207468616e203000000081525060200191505060405180910390fd5b60a0604051908101604052808373ffffffffffffffffffffffffffffffffffffffff168152602001828152602001600060048111156114a657fe5b81526020016001151581526020016000815250600960008473ffffffffffffffffffffffffffffffffffffffff1673ffffffffffffffffffffffffffffffffffffffff16815260200190815260200160002060008201518160000160006101000a81548173ffffffffffffffffffffffffffffffffffffffff021916908373ffffffffffffffffffffffffffffffffffffffff1602179055506020820151816001015560408201518160020160006101000a81548160ff0219169083600481111561156d57fe5b021790555060608201518160020160016101000a81548160ff02191690831515021790555060808201518160030155905050600b8290806001815401808255809150509060018203906000526020600020016000909192909190916101000a81548173ffffffffffffffffffffffffffffffffffffffff021916908373ffffffffffffffffffffffffffffffffffffffff16021790555050600c819080600181540180825580915050906001820390600052602060002001600090919290919091505550611639613e6a565b7ff84726c57ea7aa8d56e686155d2d110955222ecc35358ceecbf67040310f9d668282604051808373ffffffffffffffffffffffffffffffffffffffff1673ffffffffffffffffffffffffffffffffffffffff1681526020018281526020019250505060405180910390a1600080905060008090505b600c8054905081101561178657600c818154811015156116cb57fe5b90600052602060002001548201915060648211151515611779576040517f08c379a00000000000000000000000000000000000000000000000000000000081526004018080602001828103825260288152602001807f43616e6e6f742065786365656420313030252072657761726420666f7220646581526020017f76656c6f7065727300000000000000000000000000000000000000000000000081525060400191505060405180910390fd5b80806001019150506116af565b50505050565b60005481565b60055481565b60035481565b60011515600a60003373ffffffffffffffffffffffffffffffffffffffff1673ffffffffffffffffffffffffffffffffffffffff16815260200190815260200160002060009054906101000a900460ff161515148061184a5750600160009054906101000a900473ffffffffffffffffffffffffffffffffffffffff1673ffffffffffffffffffffffffffffffffffffffff163373ffffffffffffffffffffffffffffffffffffffff16145b15156118e4576040517f08c379a00000000000000000000000000000000000000000000000000000000081526004018080602001828103825260238152602001807f4f6e6c792061646d696e206f72206f776e65722063616e20706572666f6d207481526020017f686973000000000000000000000000000000000000000000000000000000000081525060400191505060405180910390fd5b60011515600660009054906101000a900460ff16151514151561196f576040517f08c379a00000000000000000000000000000000000000000000000000000000081526004018080602001828103825260178152602001807f436f6e7472616374206d7573742062652061637469766500000000000000000081525060200191505060405180910390fd5b60011515600660009054906101000a900460ff16151514151561199157600080fd5b6000600660006101000a81548160ff0219169083151502179055506001600860026101000a81548160ff0219169083151502179055507fa843684c9687b7e9174bb21abe6cd723ac60692a4d26883a8b8795f410b6ba1b6001604051808215151515815260200191505060405180910390a1565b600860019054906101000a900460ff1681565b60045481565b600c81815481101515611a2d57fe5b906000526020600020016000915090505481565b60096020528060005260406000206000915090508060000160009054906101000a900473ffffffffffffffffffffffffffffffffffffffff16908060010154908060020160009054906101000a900460ff16908060020160019054906101000a900460ff16908060030154905085565b60011515600a60003373ffffffffffffffffffffffffffffffffffffffff1673ffffffffffffffffffffffffffffffffffffffff16815260200190815260200160002060009054906101000a900460ff1615151480611b5d5750600160009054906101000a900473ffffffffffffffffffffffffffffffffffffffff1673ffffffffffffffffffffffffffffffffffffffff163373ffffffffffffffffffffffffffffffffffffffff16145b1515611bf7576040517f08c379a00000000000000000000000000000000000000000000000000000000081526004018080602001828103825260238152602001807f4f6e6c792061646d696e206f72206f776e65722063616e20706572666f6d207481526020017f686973000000000000000000000000000000000000000000000000000000000081525060400191505060405180910390fd5b600360055411151515611c98576040517f08c379a000000000000000000000000000000000000000000000000000000000815260040180806020018281038252602c8152602001807f43616e6e6f74206368616e676520636f6e74726163742074696d65206166746581526020017f722074686972642073746570000000000000000000000000000000000000000081525060400191505060405180910390fd5b600260005411151515611d39576040517f08c379a000000000000000000000000000000000000000000000000000000000815260040180806020018281038252602d8152602001807f436f6e74726163742063616e206d6178696d616c20626520657874656e64656481526020017f2062792074776f207765656b730000000000000000000000000000000000000081525060400191505060405180910390fd5b600062093a806002540190508060028190555060008081548092919060010191905055506004600254811515611d6b57fe5b046007819055507f3649239ef6fcf1a37a7f28defe804b900337582bcd355087760a1cfe9af9717b816040518082815260200191505060405180910390a150565b60011515600a60003373ffffffffffffffffffffffffffffffffffffffff1673ffffffffffffffffffffffffffffffffffffffff16815260200190815260200160002060009054906101000a900460ff1615151480611e585750600160009054906101000a900473ffffffffffffffffffffffffffffffffffffffff1673ffffffffffffffffffffffffffffffffffffffff163373ffffffffffffffffffffffffffffffffffffffff16145b1515611ef2576040517f08c379a00000000000000000000000000000000000000000000000000000000081526004018080602001828103825260238152602001807f4f6e6c792061646d696e206f72206f776e65722063616e20706572666f6d207481526020017f686973000000000000000000000000000000000000000000000000000000000081525060400191505060405180910390fd5b60001515600a60008373ffffffffffffffffffffffffffffffffffffffff1673ffffffffffffffffffffffffffffffffffffffff16815260200190815260200160002060009054906101000a900460ff161515141515611f5157600080fd5b60001515600960008373ffffffffffffffffffffffffffffffffffffffff1673ffffffffffffffffffffffffffffffffffffffff16815260200190815260200160002060020160019054906101000a900460ff161515141515611fb357600080fd5b6002600d8054905014151515612031576040517f08c379a000000000000000000000000000000000000000000000000000000000815260040180806020018281038252601a8152602001807f43616e206f6e6c792068617665206d617820322061646d696e7300000000000081525060200191505060405180910390fd5b6001600a60008373ffffffffffffffffffffffffffffffffffffffff1673ffffffffffffffffffffffffffffffffffffffff16815260200190815260200160002060006101000a81548160ff021916908315150217905550600d8190806001815401808255809150509060018203906000526020600020016000909192909190916101000a81548173ffffffffffffffffffffffffffffffffffffffff021916908373ffffffffffffffffffffffffffffffffffffffff160217905550507f873b6546df550db4e197c19f621af58777f109107ed897212d3ab52d5a9f2ede81604051808273ffffffffffffffffffffffffffffffffffffffff1673ffffffffffffffffffffffffffffffffffffffff16815260200191505060405180910390a150565b600160009054906101000a900473ffffffffffffffffffffffffffffffffffffffff1681565b600860009054906101000a900460ff1681565b600b8181548110151561219d57fe5b906000526020600020016000915054906101000a900473ffffffffffffffffffffffffffffffffffffffff1681565b60025481565b60011515600a60003373ffffffffffffffffffffffffffffffffffffffff1673ffffffffffffffffffffffffffffffffffffffff16815260200190815260200160002060009054906101000a900460ff161515148061227e5750600160009054906101000a900473ffffffffffffffffffffffffffffffffffffffff1673ffffffffffffffffffffffffffffffffffffffff163373ffffffffffffffffffffffffffffffffffffffff16145b1515612318576040517f08c379a00000000000000000000000000000000000000000000000000000000081526004018080602001828103825260238152602001807f4f6e6c792061646d696e206f72206f776e65722063616e20706572666f6d207481526020017f686973000000000000000000000000000000000000000000000000000000000081525060400191505060405180910390fd5b60011515600860029054906101000a900460ff16151514151561233a57600080fd5b60001515600660009054906101000a900460ff1615151415156123c5576040517f08c379a00000000000000000000000000000000000000000000000000000000081526004018080602001828103825260178152602001807f636f6e7472616374206d7573742062652070617573656400000000000000000081525060200191505060405180910390fd5b6001600660006101000a81548160ff0219169083151502179055507f5920dcc2fce9de8e9f065fa16dd41c06e19489eeb386d75c04f264e03c937d266000604051808215151515815260200191505060405180910390a1565b60003073ffffffffffffffffffffffffffffffffffffffff1631905090565b6000600b80549050905090565b3360011515600960008373ffffffffffffffffffffffffffffffffffffffff1673ffffffffffffffffffffffffffffffffffffffff16815260200190815260200160002060020160019054906101000a900460ff161515141515612516576040517f08c379a000000000000000000000000000000000000000000000000000000000815260040180806020018281038252600d8152602001807f4f6e6c7920666f7220646576730000000000000000000000000000000000000081525060200191505060405180910390fd5b60011515600660009054906101000a900460ff1615151415156125a1576040517f08c379a00000000000000000000000000000000000000000000000000000000081526004018080602001828103825260178152602001807f436f6e7472616374206d7573742062652061637469766500000000000000000081525060200191505060405180910390fd5b6000600960003373ffffffffffffffffffffffffffffffffffffffff1673ffffffffffffffffffffffffffffffffffffffff168152602001908152602001600020600101549050600160055414156127e0576000600960003373ffffffffffffffffffffffffffffffffffffffff1673ffffffffffffffffffffffffffffffffffffffff168152602001908152602001600020600301541415156126d3576040517f08c379a00000000000000000000000000000000000000000000000000000000081526004018080602001828103825260288152602001807f6e6f207769746864726177616c732063616e2068617665206265656e206d616481526020017f65206265666f726500000000000000000000000000000000000000000000000081525060400191505060405180910390fd5b3373ffffffffffffffffffffffffffffffffffffffff166108fc6004606484600354028115156126ff57fe5b0481151561270957fe5b049081150290604051600060405180830381858888f19350505050158015612735573d6000803e3d6000fd5b50600960003373ffffffffffffffffffffffffffffffffffffffff1673ffffffffffffffffffffffffffffffffffffffff168152602001908152602001600020600301600081548092919060010191905055507fa26d6de68d7cc61e250566e49297af6d4a7dfb4b5a0185fb55db62de319154816004606483600354028115156127bb57fe5b048115156127c557fe5b046040518082815260200191505060405180910390a1612d3b565b600260055414156129d9576001600960003373ffffffffffffffffffffffffffffffffffffffff1673ffffffffffffffffffffffffffffffffffffffff16815260200190815260200160002060030154111515156128cc576040517f08c379a00000000000000000000000000000000000000000000000000000000081526004018080602001828103825260268152602001807f31207769746864726177616c2063616e2068617665206265656e206d6164652081526020017f6265666f7265000000000000000000000000000000000000000000000000000081525060400191505060405180910390fd5b3373ffffffffffffffffffffffffffffffffffffffff166108fc6004606484600354028115156128f857fe5b0481151561290257fe5b049081150290604051600060405180830381858888f1935050505015801561292e573d6000803e3d6000fd5b50600960003373ffffffffffffffffffffffffffffffffffffffff1673ffffffffffffffffffffffffffffffffffffffff168152602001908152602001600020600301600081548092919060010191905055507fa26d6de68d7cc61e250566e49297af6d4a7dfb4b5a0185fb55db62de319154816004606483600354028115156129b457fe5b048115156129be57fe5b046040518082815260200191505060405180910390a1612d3a565b60036005541415612bd2576002600960003373ffffffffffffffffffffffffffffffffffffffff1673ffffffffffffffffffffffffffffffffffffffff1681526020019081526020016000206003015411151515612ac5576040517f08c379a00000000000000000000000000000000000000000000000000000000081526004018080602001828103825260278152602001807f32207769746864726177616c732063616e2068617665206265656e206d61646581526020017f206265666f72650000000000000000000000000000000000000000000000000081525060400191505060405180910390fd5b3373ffffffffffffffffffffffffffffffffffffffff166108fc600460648460035402811515612af157fe5b04811515612afb57fe5b049081150290604051600060405180830381858888f19350505050158015612b27573d6000803e3d6000fd5b50600960003373ffffffffffffffffffffffffffffffffffffffff1673ffffffffffffffffffffffffffffffffffffffff168152602001908152602001600020600301600081548092919060010191905055507fa26d6de68d7cc61e250566e49297af6d4a7dfb4b5a0185fb55db62de31915481600460648360035402811515612bad57fe5b04811515612bb757fe5b046040518082815260200191505060405180910390a1612d39565b60046005541415612d38576003600960003373ffffffffffffffffffffffffffffffffffffffff1673ffffffffffffffffffffffffffffffffffffffff1681526020019081526020016000206003015411151515612c2f57600080fd5b3373ffffffffffffffffffffffffffffffffffffffff166108fc600460648460035402811515612c5b57fe5b04811515612c6557fe5b049081150290604051600060405180830381858888f19350505050158015612c91573d6000803e3d6000fd5b50600960003373ffffffffffffffffffffffffffffffffffffffff1673ffffffffffffffffffffffffffffffffffffffff168152602001908152602001600020600301600081548092919060010191905055507fa26d6de68d7cc61e250566e49297af6d4a7dfb4b5a0185fb55db62de31915481600460648360035402811515612d1757fe5b04811515612d2157fe5b046040518082815260200191505060405180910390a15b5b5b5b5050565b60011515600a60003373ffffffffffffffffffffffffffffffffffffffff1673ffffffffffffffffffffffffffffffffffffffff16815260200190815260200160002060009054906101000a900460ff1615151480612deb5750600160009054906101000a900473ffffffffffffffffffffffffffffffffffffffff1673ffffffffffffffffffffffffffffffffffffffff163373ffffffffffffffffffffffffffffffffffffffff16145b1515612e85576040517f08c379a00000000000000000000000000000000000000000000000000000000081526004018080602001828103825260238152602001807f4f6e6c792061646d696e206f72206f776e65722063616e20706572666f6d207481526020017f686973000000000000000000000000000000000000000000000000000000000081525060400191505060405180910390fd5b60011515600660009054906101000a900460ff161515141515612f10576040517f08c379a00000000000000000000000000000000000000000000000000000000081526004018080602001828103825260178152602001807f436f6e7472616374206d7573742062652061637469766500000000000000000081525060200191505060405180910390fd5b600460055414151515612fb1576040517f08c379a00000000000000000000000000000000000000000000000000000000081526004018080602001828103825260328152602001807f6166746572203420737465707320616363657074656420746869732066756e6381526020017f74696f6e2063616e27742062652075736564000000000000000000000000000081525060400191505060405180910390fd5b600060055414156132745742600754014211151515613038576040517f08c379a000000000000000000000000000000000000000000000000000000000815260040180806020018281038252601e8152602001807f4669727374207374657020646561646c696e652068617320706173736564000081525060200191505060405180910390fd5b6005600081548092919060010191905055507ffba9e6cd2bac4aba75056df862cc12c165d9a205b8aea1aef837e9b470932a166005546040518082815260200191505060405180910390a160008090505b600b805490508160ff16101561326e57600060048111156130a657fe5b60096000600b8460ff168154811015156130bc57fe5b9060005260206000200160009054906101000a900473ffffffffffffffffffffffffffffffffffffffff1673ffffffffffffffffffffffffffffffffffffffff1673ffffffffffffffffffffffffffffffffffffffff16815260200190815260200160002060020160009054906101000a900460ff16600481111561313d57fe5b14151561314957600080fd5b600073ffffffffffffffffffffffffffffffffffffffff16600b8260ff1681548110151561317357fe5b9060005260206000200160009054906101000a900473ffffffffffffffffffffffffffffffffffffffff1673ffffffffffffffffffffffffffffffffffffffff16141515156131c157600080fd5b600160096000600b8460ff168154811015156131d957fe5b9060005260206000200160009054906101000a900473ffffffffffffffffffffffffffffffffffffffff1673ffffffffffffffffffffffffffffffffffffffff1673ffffffffffffffffffffffffffffffffffffffff16815260200190815260200160002060020160006101000a81548160ff0219169083600481111561325c57fe5b02179055508080600101915050613089565b50613a8c565b6001600554141561353a57426002600754020142111515156132fe576040517f08c379a000000000000000000000000000000000000000000000000000000000815260040180806020018281038252601f8152602001807f5365636f6e64207374657020646561646c696e6520686173207061737365640081525060200191505060405180910390fd5b6005600081548092919060010191905055507ffba9e6cd2bac4aba75056df862cc12c165d9a205b8aea1aef837e9b470932a166005546040518082815260200191505060405180910390a160008090505b600b805490508160ff161015613534576001600481111561336c57fe5b60096000600b8460ff1681548110151561338257fe5b9060005260206000200160009054906101000a900473ffffffffffffffffffffffffffffffffffffffff1673ffffffffffffffffffffffffffffffffffffffff1673ffffffffffffffffffffffffffffffffffffffff16815260200190815260200160002060020160009054906101000a900460ff16600481111561340357fe5b14151561340f57600080fd5b600073ffffffffffffffffffffffffffffffffffffffff16600b8260ff1681548110151561343957fe5b9060005260206000200160009054906101000a900473ffffffffffffffffffffffffffffffffffffffff1673ffffffffffffffffffffffffffffffffffffffff161415151561348757600080fd5b600260096000600b8460ff1681548110151561349f57fe5b9060005260206000200160009054906101000a900473ffffffffffffffffffffffffffffffffffffffff1673ffffffffffffffffffffffffffffffffffffffff1673ffffffffffffffffffffffffffffffffffffffff16815260200190815260200160002060020160006101000a81548160ff0219169083600481111561352257fe5b0217905550808060010191505061334f565b50613a8b565b6002600554141561380057426003600754020142111515156135c4576040517f08c379a000000000000000000000000000000000000000000000000000000000815260040180806020018281038252601e8152602001807f5468697264207374657020646561646c696e652068617320706173736564000081525060200191505060405180910390fd5b6005600081548092919060010191905055507ffba9e6cd2bac4aba75056df862cc12c165d9a205b8aea1aef837e9b470932a166005546040518082815260200191505060405180910390a160008090505b600b805490508160ff1610156137fa576002600481111561363257fe5b60096000600b8460ff1681548110151561364857fe5b9060005260206000200160009054906101000a900473ffffffffffffffffffffffffffffffffffffffff1673ffffffffffffffffffffffffffffffffffffffff1673ffffffffffffffffffffffffffffffffffffffff16815260200190815260200160002060020160009054906101000a900460ff1660048111156136c957fe5b1415156136d557600080fd5b600073ffffffffffffffffffffffffffffffffffffffff16600b8260ff168154811015156136ff57fe5b9060005260206000200160009054906101000a900473ffffffffffffffffffffffffffffffffffffffff1673ffffffffffffffffffffffffffffffffffffffff161415151561374d57600080fd5b600360096000600b8460ff1681548110151561376557fe5b9060005260206000200160009054906101000a900473ffffffffffffffffffffffffffffffffffffffff1673ffffffffffffffffffffffffffffffffffffffff1673ffffffffffffffffffffffffffffffffffffffff16815260200190815260200160002060020160006101000a81548160ff021916908360048111156137e857fe5b02179055508080600101915050613615565b50613a8a565b60036005541415613a89574260046007540201421115151561388a576040517f08c379a000000000000000000000000000000000000000000000000000000000815260040180806020018281038252601f8152602001807f466f75727468207374657020646561646c696e6520686173207061737365640081525060200191505060405180910390fd5b60056000815480929190600101919050555060008090505b600b805490508160ff161015613a8757600360048111156138bf57fe5b60096000600b8460ff168154811015156138d557fe5b9060005260206000200160009054906101000a900473ffffffffffffffffffffffffffffffffffffffff1673ffffffffffffffffffffffffffffffffffffffff1673ffffffffffffffffffffffffffffffffffffffff16815260200190815260200160002060020160009054906101000a900460ff16600481111561395657fe5b14151561396257600080fd5b600073ffffffffffffffffffffffffffffffffffffffff16600b8260ff1681548110151561398c57fe5b9060005260206000200160009054906101000a900473ffffffffffffffffffffffffffffffffffffffff1673ffffffffffffffffffffffffffffffffffffffff16141515156139da57600080fd5b600460096000600b8460ff168154811015156139f257fe5b9060005260206000200160009054906101000a900473ffffffffffffffffffffffffffffffffffffffff1673ffffffffffffffffffffffffffffffffffffffff1673ffffffffffffffffffffffffffffffffffffffff16815260200190815260200160002060020160006101000a81548160ff02191690836004811115613a7557fe5b021790555080806001019150506138a2565b505b5b5b5b565b600660009054906101000a900460ff1681565b60011515600a60003373ffffffffffffffffffffffffffffffffffffffff1673ffffffffffffffffffffffffffffffffffffffff16815260200190815260200160002060009054906101000a900460ff1615151480613b4d5750600160009054906101000a900473ffffffffffffffffffffffffffffffffffffffff1673ffffffffffffffffffffffffffffffffffffffff163373ffffffffffffffffffffffffffffffffffffffff16145b1515613be7576040517f08c379a00000000000000000000000000000000000000000000000000000000081526004018080602001828103825260238152602001807f4f6e6c792061646d696e206f72206f776e65722063616e20706572666f6d207481526020017f686973000000000000000000000000000000000000000000000000000000000081525060400191505060405180910390fd5b8173ffffffffffffffffffffffffffffffffffffffff16600b82815481101515613c0d57fe5b9060005260206000200160009054906101000a900473ffffffffffffffffffffffffffffffffffffffff1673ffffffffffffffffffffffffffffffffffffffff16141515613cc3576040517f08c379a00000000000000000000000000000000000000000000000000000000081526004018080602001828103825260178152602001807f61646472657373657320646f65736e2774206d6174636800000000000000000081525060200191505060405180910390fd5b60001515600660009054906101000a900460ff161515141515613d4e576040517f08c379a00000000000000000000000000000000000000000000000000000000081526004018080602001828103825260178152602001807f636f6e7472616374206d7573742062652070617573656400000000000000000081525060200191505060405180910390fd5b600b81815481101515613d5d57fe5b9060005260206000200160006101000a81549073ffffffffffffffffffffffffffffffffffffffff0219169055600b805480919060019003613d9f9190613eb8565b50600c81815481101515613daf57fe5b9060005260206000200160009055600960008373ffffffffffffffffffffffffffffffffffffffff1673ffffffffffffffffffffffffffffffffffffffff168152602001908152602001600020600080820160006101000a81549073ffffffffffffffffffffffffffffffffffffffff021916905560018201600090556002820160006101000a81549060ff02191690556002820160016101000a81549060ff021916905560038201600090555050613e66613e6a565b5050565b600080905060008090505b600c80549050811015613ead57600c81815481101515613e9157fe5b9060005260206000200154820191508080600101915050613e75565b508060048190555050565b815481835581811115613edf57818360005260206000209182019101613ede9190613ee4565b5b505050565b613f0691905b80821115613f02576000816000905550600101613eea565b5090565b9056fea165627a7a72305820440b6305dda5ba234528a325cf9bd198e92bf281ff5f79087182018f9a31b42c0029",
  "source": "pragma solidity ^0.5.0;\n\n\n// @author Filip Sundgren\n// @title A Simple Bounty Contract\n\n\ncontract PlatformzNew {\n\n\n    /**\n     * Storage\n     */\n    uint public additionalWeeks;\n    address payable public owner;\n    uint public contractEndTime;\n    uint public depositAmount;\n    uint public weightGuard;\n    uint public stepCount;\n    bool public contractActive;\n    uint public timeStep;\n    AcceptedSteps public acceptedSteps;\n    bool public hasStarted;\n    bool private pauseButtonUsed;\n\n    mapping(address => Developer) public developers;\n    mapping (address => bool) public isAdmin;\n\n\n    address[] public developersList;\n    uint[] public weightNumberChecker;\n    address[] public admins;\n\n\n    /**\n     * Structs\n     */\n    struct Developer {\n        address developerAddress;\n        uint weight;\n        AcceptedSteps acceptedSteps;\n        bool isDeveloper;\n        uint withdrawalCounter;\n    }\n\n\n    /**\n     * Enums\n     */\n    enum AcceptedSteps {\n       none,\n       first,\n       second,\n       third,\n       fourth\n    }\n\n\n    /**\n     * Events\n     */\n    event LogNoneAcceptedStep(string none);\n    event LogFirstAcceptedStep(string first);\n    event LogSecondAcceptedStep(string second);\n\n    event LogDeveloperStatus(address devAddress,\n                            uint weight,\n                            uint acceptedSteps,\n                            bool isDeveloper,\n                            uint withdrawals);\n\n    event LogDeadlineExtended(uint newDeadline);\n    event LogContractEndsAt(uint unixTimeOfContract);\n\n    event LogDeveloperAdded(address developerAddressAdded, uint developerRewardWeight);\n    event LogAdminAdded(address adminAddress);\n\n    event LogPauseContract(bool contractPaused);\n    event LogResumeContract(bool contractActive);\n\n    event LogStepCount(uint stepCount);\n\n    event LogWithdrawal(uint amountWithdrawn);\n\n    event LogDepositReceived (address whoSent);\n\n\n    /**\n     * Modifiers\n     */\n\n    modifier onlyAdmin {\n        require((isAdmin[msg.sender] == true) || msg.sender == owner, \"Only admin or owner can perfom this\");\n        _;\n    }\n\n\n    modifier onlyDeveloper(address _address) {\n        require(developers[_address].isDeveloper == true, \"Only for devs\");\n        _;\n    }\n\n    modifier isActive {\n        require(contractActive == true, \"Contract must be active\");\n        _;\n    }\n\n\n    modifier onlyBeforeWeight {\n        _;\n        uint s = 0;\n        for(uint i=0; i < weightNumberChecker.length; i++){\n            s += weightNumberChecker[i];\n            require(s <= 100, \"Cannot exceed 100% reward for developers\");\n        }\n    }\n\n\n\n    /**\n     * @dev Constructor function. The deployer of the contract(msg.sender) will become the owner and get the admin role as well.\n     */\n    constructor() public {\n        owner = msg.sender;\n        isAdmin[owner] = true;\n        pauseButtonUsed = false;\n    }\n\n    /**\n     *\n     * @dev need to transfer value at this step, which will be the value of your project.\n     * @dev Developers need to be inserted before start, and the total weight (reward) for devs must be 100% of contract's amount.\n     * @param timeContract is total weeks. Only between 1-8.\n     * @return success true\n     *\n     */\n    function startWork(uint timeContract) public payable onlyAdmin returns (bool success) {\n        checkWeight();\n        require(hasStarted == false);\n        require(developersList.length > 0, \"You must add at least one developer before starting\");\n        require(timeContract >= 1 && timeContract <= 8, \"8 weeks is the maximum contract time\");\n        require(msg.value % 2 == 0, \"Even value required.\");\n        require(msg.value != 0, \"Must send money\");\n        require(weightGuard == 100, \"weight must be 100%\");\n        depositAmount = msg.value;\n        require(contractActive == false, \"contract already started\");\n        contractActive = true;\n        contractEndTime = (timeContract * 1 weeks) + now;\n        timeStep = now + contractEndTime / 4;\n        emit LogContractEndsAt(contractEndTime);\n        hasStarted = true;\n        return true;\n        }\n\n\n    /**\n     * @dev require reward to be even and everything to add up to 100%\n     * @param developer is address of the developer you wish to add\n     * @param reward is the percentual weight dev should have of total contract value\n     */\n    function addDeveloper(address developer, uint reward) public onlyAdmin onlyBeforeWeight {\n        require(contractActive == false, \"Contract cannot be active for this function\");\n        require(developers[developer].isDeveloper == false, \"Is already developer\");\n        require(reward > 0, \"reward must be greater than 0\");\n        developers[developer] = Developer({developerAddress: developer, weight: reward, acceptedSteps: AcceptedSteps.none, isDeveloper: true, withdrawalCounter: 0});\n        developersList.push(developer);\n        weightNumberChecker.push(reward);\n        checkWeight();\n        emit LogDeveloperAdded(developer, reward);\n    }\n\n    /**\n     * @dev purpose for increased transparency and reflect contract state.\n     * @return list of developers in contract.\n     */\n    function numberOfDevs() public view returns (uint numberOfDevelopers) {\n        return developersList.length;\n    }\n\n    /**\n     * @dev Owner accepts step when necessary and stepCount will increase by one (stepCount +1).\n     */\n    function stepAccept() public onlyAdmin isActive {\n        require(stepCount != 4, \"after 4 steps accepted this function can't be used\");\n        if (stepCount == 0) {\n            require(now <= (timeStep + now), \"First step deadline has passed\");\n            stepCount ++;\n            emit LogStepCount(stepCount);\n            for(uint8 i = 0; i < developersList.length; i++) {\n                require(developers[developersList[i]].acceptedSteps == AcceptedSteps.none);\n                require(developersList[i] != address(0));\n                developers[developersList[i]].acceptedSteps = AcceptedSteps.first;\n            }\n        } else if (stepCount == 1) {\n            require(now <= (timeStep * 2 + now), \"Second step deadline has passed\");\n            stepCount ++;\n            emit LogStepCount(stepCount);\n                for(uint8 i = 0; i < developersList.length; i++) {\n                    require(developers[developersList[i]].acceptedSteps == AcceptedSteps.first);\n                    require(developersList[i] != address(0));\n                    developers[developersList[i]].acceptedSteps = AcceptedSteps.second;\n                }\n        } else if (stepCount == 2) {\n            require(now <= (timeStep * 3 + now), \"Third step deadline has passed\");\n            stepCount ++;\n            emit LogStepCount(stepCount);\n                for(uint8 i = 0; i < developersList.length; i++) {\n                    require(developers[developersList[i]].acceptedSteps == AcceptedSteps.second);\n                    require(developersList[i] != address(0));\n                    developers[developersList[i]].acceptedSteps = AcceptedSteps.third;\n                }\n        } else if (stepCount == 3) {\n            require(now <= (timeStep * 4 + now), \"Fourth step deadline has passed\");\n            stepCount ++;\n            for(uint8 i = 0; i < developersList.length; i++) {\n                require(developers[developersList[i]].acceptedSteps == AcceptedSteps.third);\n                require(developersList[i] != address(0));\n                developers[developersList[i]].acceptedSteps = AcceptedSteps.fourth;\n                }\n        }\n    }\n\n\n    /**\n    * @dev Developers use this to take out money. 1/4 of their weight can be withdrawed for each accepted step.\n    */\n   function withdrawal() public onlyDeveloper(msg.sender) isActive {\n       uint weight = developers[msg.sender].weight;\n       if (stepCount == 1) {\n            require(developers[msg.sender].withdrawalCounter == 0, \"no withdrawals can have been made before\");\n            msg.sender.transfer(((depositAmount * weight) / 100) / 4);\n            developers[msg.sender].withdrawalCounter ++;\n            emit LogWithdrawal(((depositAmount * weight) / 100) / 4);\n        } else if (stepCount == 2) {\n            require(developers[msg.sender].withdrawalCounter <= 1, \"1 withdrawal can have been made before\");\n            msg.sender.transfer(((depositAmount * weight) / 100) / 4);\n            developers[msg.sender].withdrawalCounter ++;\n            emit LogWithdrawal(((depositAmount * weight) / 100) / 4);\n        } else if (stepCount == 3) {\n            require(developers[msg.sender].withdrawalCounter <= 2, \"2 withdrawals can have been made before\");\n            msg.sender.transfer(((depositAmount * weight) / 100) / 4);\n            developers[msg.sender].withdrawalCounter ++;\n            emit LogWithdrawal(((depositAmount * weight) / 100) / 4);\n        } else if (stepCount == 4) {\n            require(developers[msg.sender].withdrawalCounter <= 3);\n            msg.sender.transfer(((depositAmount * weight) / 100) / 4);\n            developers[msg.sender].withdrawalCounter ++;\n            emit LogWithdrawal(((depositAmount * weight) / 100) / 4);\n        }\n    }\n\n    /**\n    * @dev The Owner can add an additional admin\n    */\n    function addAdmin(address _admin) public onlyAdmin {\n        require(isAdmin[_admin] == false);\n        require(developers[_admin].isDeveloper == false);\n        require(admins.length != 2, \"Can only have max 2 admins\");\n        isAdmin[_admin] = true;\n        admins.push(_admin);\n        emit LogAdminAdded(_admin);\n    }\n\n\n    /**\n     * Admin tools\n     */\n\n     /**\n     * @dev Checks current weight of project. Needs to add up to 100 before contract can start.\n     * @dev The function is called internally by other functions and cannot be called in itself.\n     */\n    function checkWeight() internal {\n        uint k = 0;\n        for(uint i=0; i < weightNumberChecker.length; i++){\n            k += weightNumberChecker[i];\n        }\n        weightGuard = k;\n    }\n\n    /**\n     * @dev Checks current balance of contract in oppose to depositAmount.\n     * @dev Good to have an overview and see how much money the contract contains at the moment.\n     */\n    function checkBalance() public view returns(uint contractBalance) {\n        return address(this).balance;\n    }\n\n\n    /**\n     * @dev Remove single dev from list. Can only be done if contract hasn't yet started, or is paused (it should be a big step to remove someone and it\n     * must be communicated properly, why it's necessary to pause to whole operation first).\n     * @dev If the contract has started and the admin removes a developer, the weight doesn't need to add up to 100% in order to resume contract.\n     * Maybe a replacement isn't necessary and the other developers shouldn't per se get the removed developer's cut.\n     * @param devAddress is the address of the developer you wish to remove.\n     * @param devInList is its place in developersList, which need to match. Used as a control mechanism.\n     */\n    function removeSingleDev(address devAddress, uint devInList) public onlyAdmin {\n        require(developersList[devInList] == devAddress, \"addresses doesn't match\");\n        require(contractActive == false, \"contract must be paused\");\n        delete developersList[devInList];\n        developersList.length --;\n        delete weightNumberChecker[devInList];\n        delete developers[devAddress];\n        checkWeight();\n    }\n\n    /**\n     * @dev Removes admin.\n     * @param adminAddress is the address of the developer you wish to remove.\n     */\n    function removeAdmin(address adminAddress) public {\n        require(isAdmin[adminAddress] == true, \"Must be admin\");\n        require(adminAddress != owner, \"cannot be the owner\");\n        isAdmin[adminAddress] = false;\n        admins.length --;\n    }\n\n\n    /**\n     * @dev Extend the deadline. Will prolong Step 4, implying one cannot make this call after Step 3.\n     **/\n    function extendDeadline() public onlyAdmin {\n        require(stepCount <= 3, \"Cannot change contract time after third step\");\n        require(additionalWeeks <= 2, \"Contract can maximal be extended by two weeks\");\n        uint newDeadline = contractEndTime + 1 weeks;\n        contractEndTime = newDeadline;\n        additionalWeeks++;\n        timeStep = contractEndTime / 4;\n        emit LogDeadlineExtended(newDeadline);\n    }\n\n\n    /**\n     * @dev Emergency stop which is necessary to have if the owner has technical issues etc.\n     * @dev Can only be called by owner or added admin\n     **/\n    function pauseContract() public onlyAdmin isActive {\n        require(contractActive == true);\n        contractActive = false;\n        pauseButtonUsed = true;\n        emit LogPauseContract(true);\n    }\n\n\n    /**\n     * @dev Resume the contract after it has been paused.\n     * @dev Added \"hasStarted\" as an extra security parameter, otherwise one could start the contract from here instead of startWork().\n     **/\n    function resumeContract() public onlyAdmin {\n        require(pauseButtonUsed == true);\n        require(contractActive == false, \"contract must be paused\");\n        contractActive = true;\n        emit LogResumeContract(false);\n    }\n\n\n    /**\n     * @dev Option to kill contract for any reason. Not necessary, but if owner for any reason want to erase everything,\n     * he should be able to do it.\n     **/\n    function killContract() public returns(bool dead) {\n        require(msg.sender == owner);\n        selfdestruct(owner);\n        return(true);\n    }\n\n\n    /**\n     * @dev Fallback function which will take care of potential function calls that involve money, if gas runs\n     **/\n    function()external payable {\n        require(msg.data.length == 0);\n        emit LogDepositReceived(msg.sender);\n    }\n}\n",
  "sourcePath": "/Users/filipsundgren/Desktop/final-project/contracts/WorkingContract.sol",
  "compiler": {
    "name": "solc",
    "version": "0.5.1+commit.c8a2cb62.Emscripten.clang"
  },
  "schemaVersion": "3.0.0-beta.1",
  "updatedAt": "2019-01-27T19:49:53.198Z",
  "devdoc": {
    "methods": {
      "addAdmin(address)": {
        "details": "The Owner can add an additional admin"
      },
      "addDeveloper(address,uint256)": {
        "details": "require reward to be even and everything to add up to 100%",
        "params": {
          "developer": "is address of the developer you wish to add",
          "reward": "is the percentual weight dev should have of total contract value"
        }
      },
      "checkBalance()": {
        "details": "Checks current balance of contract in oppose to depositAmount.Good to have an overview and see how much money the contract contains at the moment."
      },
      "constructor": {
        "details": "Constructor function. The deployer of the contract(msg.sender) will become the owner and get the admin role as well."
      },
      "extendDeadline()": {
        "details": "Extend the deadline. Will prolong Step 4, implying one cannot make this call after Step 3.*"
      },
      "killContract()": {
        "details": "Option to kill contract for any reason. Not necessary, but if owner for any reason want to erase everything, he should be able to do it.*"
      },
      "numberOfDevs()": {
        "details": "purpose for increased transparency and reflect contract state.",
        "return": "list of developers in contract."
      },
      "pauseContract()": {
        "details": "Emergency stop which is necessary to have if the owner has technical issues etc.Can only be called by owner or added admin*"
      },
      "removeAdmin(address)": {
        "details": "Removes admin.",
        "params": {
          "adminAddress": "is the address of the developer you wish to remove."
        }
      },
      "removeSingleDev(address,uint256)": {
        "details": "Remove single dev from list. Can only be done if contract hasn't yet started, or is paused (it should be a big step to remove someone and it must be communicated properly, why it's necessary to pause to whole operation first).If the contract has started and the admin removes a developer, the weight doesn't need to add up to 100% in order to resume contract. Maybe a replacement isn't necessary and the other developers shouldn't per se get the removed developer's cut.",
        "params": {
          "devAddress": "is the address of the developer you wish to remove.",
          "devInList": "is its place in developersList, which need to match. Used as a control mechanism."
        }
      },
      "resumeContract()": {
        "details": "Resume the contract after it has been paused.Added \"hasStarted\" as an extra security parameter, otherwise one could start the contract from here instead of startWork().*"
      },
      "startWork(uint256)": {
        "details": "need to transfer value at this step, which will be the value of your project.Developers need to be inserted before start, and the total weight (reward) for devs must be 100% of contract's amount.",
        "params": {
          "timeContract": "is total weeks. Only between 1-8."
        },
        "return": "success true     "
      },
      "stepAccept()": {
        "details": "Owner accepts step when necessary and stepCount will increase by one (stepCount +1)."
      },
      "withdrawal()": {
        "details": "Developers use this to take out money. 1/4 of their weight can be withdrawed for each accepted step."
      }
    }
  },
  "userdoc": {
    "methods": {}
  }
}